{
  "_format": "hh-sol-artifact-1",
  "contractName": "ONMarket",
  "sourceName": "contracts/ONMarket.sol",
  "abi": [
    {
      "inputs": [
        {
          "internalType": "address",
          "name": "_paymentTokenAddress",
          "type": "address"
        }
      ],
      "stateMutability": "nonpayable",
      "type": "constructor"
    },
    {
      "anonymous": false,
      "inputs": [
        {
          "indexed": true,
          "internalType": "uint256",
          "name": "itemId",
          "type": "uint256"
        },
        {
          "indexed": true,
          "internalType": "address",
          "name": "nftContract",
          "type": "address"
        },
        {
          "indexed": true,
          "internalType": "uint256",
          "name": "tokenId",
          "type": "uint256"
        },
        {
          "indexed": false,
          "internalType": "address",
          "name": "owner",
          "type": "address"
        },
        {
          "indexed": false,
          "internalType": "address",
          "name": "minter",
          "type": "address"
        },
        {
          "indexed": false,
          "internalType": "uint256",
          "name": "percentageRoyalty",
          "type": "uint256"
        },
        {
          "indexed": false,
          "internalType": "address",
          "name": "buyer",
          "type": "address"
        },
        {
          "indexed": false,
          "internalType": "uint256",
          "name": "price",
          "type": "uint256"
        },
        {
          "indexed": false,
          "internalType": "enum Status",
          "name": "status",
          "type": "uint8"
        },
        {
          "indexed": false,
          "internalType": "enum EventType",
          "name": "eventType",
          "type": "uint8"
        }
      ],
      "name": "MarketItemEvent",
      "type": "event"
    },
    {
      "inputs": [
        {
          "internalType": "uint256",
          "name": "itemId",
          "type": "uint256"
        }
      ],
      "name": "confirmReceptionItem",
      "outputs": [],
      "stateMutability": "nonpayable",
      "type": "function"
    },
    {
      "inputs": [
        {
          "internalType": "address",
          "name": "nftContract",
          "type": "address"
        },
        {
          "internalType": "uint256",
          "name": "tokenId",
          "type": "uint256"
        },
        {
          "internalType": "address",
          "name": "newOwnerAddress",
          "type": "address"
        }
      ],
      "name": "depositItem",
      "outputs": [],
      "stateMutability": "nonpayable",
      "type": "function"
    },
    {
      "inputs": [],
      "name": "getAllItems",
      "outputs": [
        {
          "components": [
            {
              "internalType": "uint256",
              "name": "itemId",
              "type": "uint256"
            },
            {
              "internalType": "address",
              "name": "nftContract",
              "type": "address"
            },
            {
              "internalType": "uint256",
              "name": "tokenId",
              "type": "uint256"
            },
            {
              "internalType": "address",
              "name": "owner",
              "type": "address"
            },
            {
              "internalType": "address",
              "name": "minter",
              "type": "address"
            },
            {
              "internalType": "uint256",
              "name": "percentageRoyalty",
              "type": "uint256"
            },
            {
              "internalType": "address",
              "name": "buyer",
              "type": "address"
            },
            {
              "internalType": "uint256",
              "name": "price",
              "type": "uint256"
            },
            {
              "internalType": "enum Status",
              "name": "status",
              "type": "uint8"
            }
          ],
          "internalType": "struct ONMarket.MarketItem[]",
          "name": "",
          "type": "tuple[]"
        }
      ],
      "stateMutability": "view",
      "type": "function"
    },
    {
      "inputs": [
        {
          "internalType": "enum Status",
          "name": "_status",
          "type": "uint8"
        }
      ],
      "name": "getItemsByStatus",
      "outputs": [
        {
          "components": [
            {
              "internalType": "uint256",
              "name": "itemId",
              "type": "uint256"
            },
            {
              "internalType": "address",
              "name": "nftContract",
              "type": "address"
            },
            {
              "internalType": "uint256",
              "name": "tokenId",
              "type": "uint256"
            },
            {
              "internalType": "address",
              "name": "owner",
              "type": "address"
            },
            {
              "internalType": "address",
              "name": "minter",
              "type": "address"
            },
            {
              "internalType": "uint256",
              "name": "percentageRoyalty",
              "type": "uint256"
            },
            {
              "internalType": "address",
              "name": "buyer",
              "type": "address"
            },
            {
              "internalType": "uint256",
              "name": "price",
              "type": "uint256"
            },
            {
              "internalType": "enum Status",
              "name": "status",
              "type": "uint8"
            }
          ],
          "internalType": "struct ONMarket.MarketItem[]",
          "name": "",
          "type": "tuple[]"
        }
      ],
      "stateMutability": "view",
      "type": "function"
    },
    {
      "inputs": [],
      "name": "getMyItems",
      "outputs": [
        {
          "components": [
            {
              "internalType": "uint256",
              "name": "itemId",
              "type": "uint256"
            },
            {
              "internalType": "address",
              "name": "nftContract",
              "type": "address"
            },
            {
              "internalType": "uint256",
              "name": "tokenId",
              "type": "uint256"
            },
            {
              "internalType": "address",
              "name": "owner",
              "type": "address"
            },
            {
              "internalType": "address",
              "name": "minter",
              "type": "address"
            },
            {
              "internalType": "uint256",
              "name": "percentageRoyalty",
              "type": "uint256"
            },
            {
              "internalType": "address",
              "name": "buyer",
              "type": "address"
            },
            {
              "internalType": "uint256",
              "name": "price",
              "type": "uint256"
            },
            {
              "internalType": "enum Status",
              "name": "status",
              "type": "uint8"
            }
          ],
          "internalType": "struct ONMarket.MarketItem[]",
          "name": "",
          "type": "tuple[]"
        }
      ],
      "stateMutability": "view",
      "type": "function"
    },
    {
      "inputs": [],
      "name": "getPercentageDeployerFee",
      "outputs": [
        {
          "internalType": "uint256",
          "name": "",
          "type": "uint256"
        }
      ],
      "stateMutability": "view",
      "type": "function"
    },
    {
      "inputs": [
        {
          "internalType": "uint256",
          "name": "itemId",
          "type": "uint256"
        },
        {
          "internalType": "uint256",
          "name": "price",
          "type": "uint256"
        }
      ],
      "name": "listItem",
      "outputs": [],
      "stateMutability": "nonpayable",
      "type": "function"
    },
    {
      "inputs": [
        {
          "internalType": "uint256",
          "name": "itemId",
          "type": "uint256"
        }
      ],
      "name": "payItem",
      "outputs": [],
      "stateMutability": "nonpayable",
      "type": "function"
    },
    {
      "inputs": [
        {
          "internalType": "uint256",
          "name": "itemId",
          "type": "uint256"
        }
      ],
      "name": "unListingItem",
      "outputs": [],
      "stateMutability": "nonpayable",
      "type": "function"
    },
    {
      "inputs": [
        {
          "internalType": "uint256",
          "name": "itemId",
          "type": "uint256"
        }
      ],
      "name": "withdrawItem",
      "outputs": [],
      "stateMutability": "nonpayable",
      "type": "function"
    }
  ],
  "bytecode": "0x608060405260016008553480156200001657600080fd5b5060405162003e4038038062003e4083398181016040528101906200003c919062000269565b600160008190555033600660006101000a81548173ffffffffffffffffffffffffffffffffffffffff021916908373ffffffffffffffffffffffffffffffffffffffff16021790555080600760006101000a81548173ffffffffffffffffffffffffffffffffffffffff021916908373ffffffffffffffffffffffffffffffffffffffff1602179055506002600b6000806003811115620000e257620000e16200029b565b5b6003811115620000f757620000f66200029b565b5b8152602001908152602001600020600082015481600001559050506003600b6000600160038111156200012f576200012e6200029b565b5b60038111156200014457620001436200029b565b5b8152602001908152602001600020600082015481600001559050506004600b6000600260038111156200017c576200017b6200029b565b5b60038111156200019157620001906200029b565b5b8152602001908152602001600020600082015481600001559050506005600b6000600380811115620001c857620001c76200029b565b5b6003811115620001dd57620001dc6200029b565b5b81526020019081526020016000206000820154816000015590505050620002ca565b600080fd5b600073ffffffffffffffffffffffffffffffffffffffff82169050919050565b6000620002318262000204565b9050919050565b620002438162000224565b81146200024f57600080fd5b50565b600081519050620002638162000238565b92915050565b600060208284031215620002825762000281620001ff565b5b6000620002928482850162000252565b91505092915050565b7f4e487b7100000000000000000000000000000000000000000000000000000000600052602160045260246000fd5b613b6680620002da6000396000f3fe608060405234801561001057600080fd5b506004361061009e5760003560e01c80638d9a3e93116100665780638d9a3e9314610133578063afc903ef1461014f578063b8c0292b1461016b578063c5fb207d14610187578063ccbd5e80146101a55761009e565b806305e17932146100a35780634ba1d6aa146100c15780635db9916f146100df57806385c808d8146100fb578063883efa6714610117575b600080fd5b6100ab6101d5565b6040516100b89190612d85565b60405180910390f35b6100c96101df565b6040516100d69190612fce565b60405180910390f35b6100f960048036038101906100f4919061304d565b61049e565b005b610115600480360381019061011091906130a0565b610db0565b005b610131600480360381019061012c91906130cd565b611229565b005b61014d600480360381019061014891906130a0565b611495565b005b610169600480360381019061016491906130a0565b6118ea565b005b610185600480360381019061018091906130a0565b611b46565b005b61018f612222565b60405161019c9190612fce565b60405180910390f35b6101bf60048036038101906101ba9190613132565b6126e1565b6040516101cc9190612fce565b60405180910390f35b6000600854905090565b606060006101ed6001612a99565b905060006101fb6001612a99565b90506000808267ffffffffffffffff81111561021a5761021961315f565b5b60405190808252806020026020018201604052801561025357816020015b610240612cb6565b8152602001906001900390816102385790505b50905060005b8481101561049357600060018261027091906131bd565b905060006009600083815260200190815260200160002090508060405180610120016040529081600082015481526020016001820160009054906101000a900473ffffffffffffffffffffffffffffffffffffffff1673ffffffffffffffffffffffffffffffffffffffff1673ffffffffffffffffffffffffffffffffffffffff168152602001600282015481526020016003820160009054906101000a900473ffffffffffffffffffffffffffffffffffffffff1673ffffffffffffffffffffffffffffffffffffffff1673ffffffffffffffffffffffffffffffffffffffff1681526020016004820160009054906101000a900473ffffffffffffffffffffffffffffffffffffffff1673ffffffffffffffffffffffffffffffffffffffff1673ffffffffffffffffffffffffffffffffffffffff168152602001600582015481526020016006820160009054906101000a900473ffffffffffffffffffffffffffffffffffffffff1673ffffffffffffffffffffffffffffffffffffffff1673ffffffffffffffffffffffffffffffffffffffff168152602001600782015481526020016008820160009054906101000a900460ff16600381111561043b5761043a612e1c565b5b600381111561044d5761044c612e1c565b5b8152505084868151811061046457610463613213565b5b602002602001018190525060018561047c91906131bd565b94505050808061048b90613242565b915050610259565b508094505050505090565b600260005414156104e4576040517f08c379a00000000000000000000000000000000000000000000000000000000081526004016104db906132e8565b60405180910390fd5b6002600081905550600080600a60008673ffffffffffffffffffffffffffffffffffffffff1673ffffffffffffffffffffffffffffffffffffffff1681526020019081526020016000206000858152602001908152602001600020541415610949576105506001612aa7565b61055a6001612a99565b905060008473ffffffffffffffffffffffffffffffffffffffff16631684193e856040518263ffffffff1660e01b81526004016105979190612d85565b60206040518083038186803b1580156105af57600080fd5b505afa1580156105c3573d6000803e3d6000fd5b505050506040513d601f19601f820116820180604052508101906105e7919061331d565b905060008573ffffffffffffffffffffffffffffffffffffffff1663c6dd4d54866040518263ffffffff1660e01b81526004016106249190612d85565b60206040518083038186803b15801561063c57600080fd5b505afa158015610650573d6000803e3d6000fd5b505050506040513d601f19601f82011682018060405250810190610674919061335f565b90506040518061012001604052808481526020018773ffffffffffffffffffffffffffffffffffffffff1681526020018681526020018573ffffffffffffffffffffffffffffffffffffffff1681526020018373ffffffffffffffffffffffffffffffffffffffff168152602001828152602001600073ffffffffffffffffffffffffffffffffffffffff16815260200160008152602001600060038111156107205761071f612e1c565b5b815250600960008581526020019081526020016000206000820151816000015560208201518160010160006101000a81548173ffffffffffffffffffffffffffffffffffffffff021916908373ffffffffffffffffffffffffffffffffffffffff1602179055506040820151816002015560608201518160030160006101000a81548173ffffffffffffffffffffffffffffffffffffffff021916908373ffffffffffffffffffffffffffffffffffffffff16021790555060808201518160040160006101000a81548173ffffffffffffffffffffffffffffffffffffffff021916908373ffffffffffffffffffffffffffffffffffffffff16021790555060a0820151816005015560c08201518160060160006101000a81548173ffffffffffffffffffffffffffffffffffffffff021916908373ffffffffffffffffffffffffffffffffffffffff16021790555060e082015181600701556101008201518160080160006101000a81548160ff021916908360038111156108a6576108a5612e1c565b5b021790555090505082600a60008873ffffffffffffffffffffffffffffffffffffffff1673ffffffffffffffffffffffffffffffffffffffff168152602001908152602001600020600087815260200190815260200160002081905550610942600b600080600381111561091d5761091c612e1c565b5b600381111561092f5761092e612e1c565b5b8152602001908152602001600020612aa7565b5050610d28565b600a60008573ffffffffffffffffffffffffffffffffffffffff1673ffffffffffffffffffffffffffffffffffffffff16815260200190815260200160002060008481526020019081526020016000205490506003808111156109af576109ae612e1c565b5b6009600083815260200190815260200160002060080160009054906101000a900460ff1660038111156109e5576109e4612e1c565b5b14610a25576040517f08c379a0000000000000000000000000000000000000000000000000000000008152600401610a1c906133d8565b60405180910390fd5b6040518061012001604052808281526020018573ffffffffffffffffffffffffffffffffffffffff1681526020018481526020018373ffffffffffffffffffffffffffffffffffffffff1681526020016009600084815260200190815260200160002060040160009054906101000a900473ffffffffffffffffffffffffffffffffffffffff1673ffffffffffffffffffffffffffffffffffffffff16815260200160096000848152602001908152602001600020600501548152602001600073ffffffffffffffffffffffffffffffffffffffff1681526020016000815260200160006003811115610b1b57610b1a612e1c565b5b815250600960008381526020019081526020016000206000820151816000015560208201518160010160006101000a81548173ffffffffffffffffffffffffffffffffffffffff021916908373ffffffffffffffffffffffffffffffffffffffff1602179055506040820151816002015560608201518160030160006101000a81548173ffffffffffffffffffffffffffffffffffffffff021916908373ffffffffffffffffffffffffffffffffffffffff16021790555060808201518160040160006101000a81548173ffffffffffffffffffffffffffffffffffffffff021916908373ffffffffffffffffffffffffffffffffffffffff16021790555060a0820151816005015560c08201518160060160006101000a81548173ffffffffffffffffffffffffffffffffffffffff021916908373ffffffffffffffffffffffffffffffffffffffff16021790555060e082015181600701556101008201518160080160006101000a81548160ff02191690836003811115610ca157610ca0612e1c565b5b0217905550905050610ce8600b6000806003811115610cc357610cc2612e1c565b5b6003811115610cd557610cd4612e1c565b5b8152602001908152602001600020612aa7565b610d27600b6000600380811115610d0257610d01612e1c565b5b6003811115610d1457610d13612e1c565b5b8152602001908152602001600020612abd565b5b8373ffffffffffffffffffffffffffffffffffffffff166323b872dd3330866040518463ffffffff1660e01b8152600401610d6593929190613407565b600060405180830381600087803b158015610d7f57600080fd5b505af1158015610d93573d6000803e3d6000fd5b50505050610da2816000612b19565b506001600081905550505050565b60026000541415610df6576040517f08c379a0000000000000000000000000000000000000000000000000000000008152600401610ded906132e8565b60405180910390fd5b600260008190555060006009600083815260200190815260200160002060405180610120016040529081600082015481526020016001820160009054906101000a900473ffffffffffffffffffffffffffffffffffffffff1673ffffffffffffffffffffffffffffffffffffffff1673ffffffffffffffffffffffffffffffffffffffff168152602001600282015481526020016003820160009054906101000a900473ffffffffffffffffffffffffffffffffffffffff1673ffffffffffffffffffffffffffffffffffffffff1673ffffffffffffffffffffffffffffffffffffffff1681526020016004820160009054906101000a900473ffffffffffffffffffffffffffffffffffffffff1673ffffffffffffffffffffffffffffffffffffffff1673ffffffffffffffffffffffffffffffffffffffff168152602001600582015481526020016006820160009054906101000a900473ffffffffffffffffffffffffffffffffffffffff1673ffffffffffffffffffffffffffffffffffffffff1673ffffffffffffffffffffffffffffffffffffffff168152602001600782015481526020016008820160009054906101000a900460ff166003811115610fc457610fc3612e1c565b5b6003811115610fd657610fd5612e1c565b5b81525050905060016003811115610ff057610fef612e1c565b5b816101000151600381111561100857611007612e1c565b5b14611048576040517f08c379a000000000000000000000000000000000000000000000000000000000815260040161103f906134b0565b60405180910390fd5b600760009054906101000a900473ffffffffffffffffffffffffffffffffffffffff1673ffffffffffffffffffffffffffffffffffffffff166323b872dd33308460e001516040518463ffffffff1660e01b81526004016110ab93929190613407565b602060405180830381600087803b1580156110c557600080fd5b505af11580156110d9573d6000803e3d6000fd5b505050506040513d601f19601f820116820180604052508101906110fd9190613508565b50336009600084815260200190815260200160002060060160006101000a81548173ffffffffffffffffffffffffffffffffffffffff021916908373ffffffffffffffffffffffffffffffffffffffff16021790555060026009600084815260200190815260200160002060080160006101000a81548160ff0219169083600381111561118d5761118c612e1c565b5b02179055506111d2600b6000600260038111156111ad576111ac612e1c565b5b60038111156111bf576111be612e1c565b5b8152602001908152602001600020612aa7565b611212600b6000600160038111156111ed576111ec612e1c565b5b60038111156111ff576111fe612e1c565b5b8152602001908152602001600020612abd565b61121d826004612b19565b50600160008190555050565b6002600054141561126f576040517f08c379a0000000000000000000000000000000000000000000000000000000008152600401611266906132e8565b60405180910390fd5b60026000819055503373ffffffffffffffffffffffffffffffffffffffff166009600084815260200190815260200160002060030160009054906101000a900473ffffffffffffffffffffffffffffffffffffffff1673ffffffffffffffffffffffffffffffffffffffff161461131b576040517f08c379a0000000000000000000000000000000000000000000000000000000008152600401611312906135a7565b60405180910390fd5b6000600381111561132f5761132e612e1c565b5b6009600084815260200190815260200160002060080160009054906101000a900460ff16600381111561136557611364612e1c565b5b146113a5576040517f08c379a000000000000000000000000000000000000000000000000000000000815260040161139c90613613565b60405180910390fd5b80600960008481526020019081526020016000206007018190555060016009600084815260200190815260200160002060080160006101000a81548160ff021916908360038111156113fa576113f9612e1c565b5b021790555061143f600b60006001600381111561141a57611419612e1c565b5b600381111561142c5761142b612e1c565b5b8152602001908152602001600020612aa7565b61147e600b600080600381111561145957611458612e1c565b5b600381111561146b5761146a612e1c565b5b8152602001908152602001600020612abd565b611489826002612b19565b60016000819055505050565b600260005414156114db576040517f08c379a00000000000000000000000000000000000000000000000000000000081526004016114d2906132e8565b60405180910390fd5b600260008190555060006009600083815260200190815260200160002060405180610120016040529081600082015481526020016001820160009054906101000a900473ffffffffffffffffffffffffffffffffffffffff1673ffffffffffffffffffffffffffffffffffffffff1673ffffffffffffffffffffffffffffffffffffffff168152602001600282015481526020016003820160009054906101000a900473ffffffffffffffffffffffffffffffffffffffff1673ffffffffffffffffffffffffffffffffffffffff1673ffffffffffffffffffffffffffffffffffffffff1681526020016004820160009054906101000a900473ffffffffffffffffffffffffffffffffffffffff1673ffffffffffffffffffffffffffffffffffffffff1673ffffffffffffffffffffffffffffffffffffffff168152602001600582015481526020016006820160009054906101000a900473ffffffffffffffffffffffffffffffffffffffff1673ffffffffffffffffffffffffffffffffffffffff1673ffffffffffffffffffffffffffffffffffffffff168152602001600782015481526020016008820160009054906101000a900460ff1660038111156116a9576116a8612e1c565b5b60038111156116bb576116ba612e1c565b5b815250509050600060038111156116d5576116d4612e1c565b5b81610100015160038111156116ed576116ec612e1c565b5b1461172d576040517f08c379a0000000000000000000000000000000000000000000000000000000008152600401611724906136a5565b60405180910390fd5b3373ffffffffffffffffffffffffffffffffffffffff16816060015173ffffffffffffffffffffffffffffffffffffffff161461179f576040517f08c379a000000000000000000000000000000000000000000000000000000000815260040161179690613737565b60405180910390fd5b806020015173ffffffffffffffffffffffffffffffffffffffff166323b872dd303384604001516040518463ffffffff1660e01b81526004016117e493929190613407565b600060405180830381600087803b1580156117fe57600080fd5b505af1158015611812573d6000803e3d6000fd5b5050505060036009600084815260200190815260200160002060080160006101000a81548160ff021916908360038111156118505761184f612e1c565b5b0217905550611894600b600060038081111561186f5761186e612e1c565b5b600381111561188157611880612e1c565b5b8152602001908152602001600020612aa7565b6118d3600b60008060038111156118ae576118ad612e1c565b5b60038111156118c0576118bf612e1c565b5b8152602001908152602001600020612abd565b6118de826001612b19565b50600160008190555050565b60026000541415611930576040517f08c379a0000000000000000000000000000000000000000000000000000000008152600401611927906132e8565b60405180910390fd5b600260008190555060006009600083815260200190815260200160002060030160009054906101000a900473ffffffffffffffffffffffffffffffffffffffff16905060006009600084815260200190815260200160002060080160009054906101000a900460ff1690508173ffffffffffffffffffffffffffffffffffffffff163373ffffffffffffffffffffffffffffffffffffffff1614611a09576040517f08c379a0000000000000000000000000000000000000000000000000000000008152600401611a00906137c9565b60405180910390fd5b60016003811115611a1d57611a1c612e1c565b5b816003811115611a3057611a2f612e1c565b5b14611a70576040517f08c379a0000000000000000000000000000000000000000000000000000000008152600401611a67906134b0565b60405180910390fd5b60006009600085815260200190815260200160002060080160006101000a81548160ff02191690836003811115611aaa57611aa9612e1c565b5b0217905550611aee600b6000806003811115611ac957611ac8612e1c565b5b6003811115611adb57611ada612e1c565b5b8152602001908152602001600020612aa7565b611b2e600b600060016003811115611b0957611b08612e1c565b5b6003811115611b1b57611b1a612e1c565b5b8152602001908152602001600020612abd565b611b39836003612b19565b5050600160008190555050565b60026000541415611b8c576040517f08c379a0000000000000000000000000000000000000000000000000000000008152600401611b83906132e8565b60405180910390fd5b600260008190555060006009600083815260200190815260200160002060405180610120016040529081600082015481526020016001820160009054906101000a900473ffffffffffffffffffffffffffffffffffffffff1673ffffffffffffffffffffffffffffffffffffffff1673ffffffffffffffffffffffffffffffffffffffff168152602001600282015481526020016003820160009054906101000a900473ffffffffffffffffffffffffffffffffffffffff1673ffffffffffffffffffffffffffffffffffffffff1673ffffffffffffffffffffffffffffffffffffffff1681526020016004820160009054906101000a900473ffffffffffffffffffffffffffffffffffffffff1673ffffffffffffffffffffffffffffffffffffffff1673ffffffffffffffffffffffffffffffffffffffff168152602001600582015481526020016006820160009054906101000a900473ffffffffffffffffffffffffffffffffffffffff1673ffffffffffffffffffffffffffffffffffffffff1673ffffffffffffffffffffffffffffffffffffffff168152602001600782015481526020016008820160009054906101000a900460ff166003811115611d5a57611d59612e1c565b5b6003811115611d6c57611d6b612e1c565b5b8152505090503373ffffffffffffffffffffffffffffffffffffffff168160c0015173ffffffffffffffffffffffffffffffffffffffff1614611de4576040517f08c379a0000000000000000000000000000000000000000000000000000000008152600401611ddb9061385b565b60405180910390fd5b600060646008548360e00151611dfa919061387b565b611e049190613904565b9050600060648360a001518460e00151611e1e919061387b565b611e289190613904565b905060008183611e3891906131bd565b8460e00151611e479190613935565b9050600760009054906101000a900473ffffffffffffffffffffffffffffffffffffffff1673ffffffffffffffffffffffffffffffffffffffff1663a9059cbb8560600151836040518363ffffffff1660e01b8152600401611eaa929190613969565b602060405180830381600087803b158015611ec457600080fd5b505af1158015611ed8573d6000803e3d6000fd5b505050506040513d601f19601f82011682018060405250810190611efc9190613508565b50600760009054906101000a900473ffffffffffffffffffffffffffffffffffffffff1673ffffffffffffffffffffffffffffffffffffffff1663a9059cbb600660009054906101000a900473ffffffffffffffffffffffffffffffffffffffff16856040518363ffffffff1660e01b8152600401611f7c929190613969565b602060405180830381600087803b158015611f9657600080fd5b505af1158015611faa573d6000803e3d6000fd5b505050506040513d601f19601f82011682018060405250810190611fce9190613508565b50600760009054906101000a900473ffffffffffffffffffffffffffffffffffffffff1673ffffffffffffffffffffffffffffffffffffffff1663a9059cbb8560800151846040518363ffffffff1660e01b8152600401612030929190613969565b602060405180830381600087803b15801561204a57600080fd5b505af115801561205e573d6000803e3d6000fd5b505050506040513d601f19601f820116820180604052508101906120829190613508565b50336009600087815260200190815260200160002060030160006101000a81548173ffffffffffffffffffffffffffffffffffffffff021916908373ffffffffffffffffffffffffffffffffffffffff16021790555060006009600087815260200190815260200160002060060160006101000a81548173ffffffffffffffffffffffffffffffffffffffff021916908373ffffffffffffffffffffffffffffffffffffffff1602179055506000600960008781526020019081526020016000206007018190555060006009600087815260200190815260200160002060080160006101000a81548160ff0219169083600381111561218457612183612e1c565b5b02179055506121c8600b60008060038111156121a3576121a2612e1c565b5b60038111156121b5576121b4612e1c565b5b8152602001908152602001600020612aa7565b612208600b6000600260038111156121e3576121e2612e1c565b5b60038111156121f5576121f4612e1c565b5b8152602001908152602001600020612abd565b612213856005612b19565b50505050600160008190555050565b606060006122306001612a99565b905060008060005b83811015612351573373ffffffffffffffffffffffffffffffffffffffff166009600060018461226891906131bd565b815260200190815260200160002060030160009054906101000a900473ffffffffffffffffffffffffffffffffffffffff1673ffffffffffffffffffffffffffffffffffffffff16148061232957503373ffffffffffffffffffffffffffffffffffffffff16600960006001846122df91906131bd565b815260200190815260200160002060060160009054906101000a900473ffffffffffffffffffffffffffffffffffffffff1673ffffffffffffffffffffffffffffffffffffffff16145b1561233e5760018361233b91906131bd565b92505b808061234990613242565b915050612238565b5060008267ffffffffffffffff81111561236e5761236d61315f565b5b6040519080825280602002602001820160405280156123a757816020015b612394612cb6565b81526020019060019003908161238c5790505b50905060005b848110156126d6573373ffffffffffffffffffffffffffffffffffffffff16600960006001846123dd91906131bd565b815260200190815260200160002060030160009054906101000a900473ffffffffffffffffffffffffffffffffffffffff1673ffffffffffffffffffffffffffffffffffffffff16148061249e57503373ffffffffffffffffffffffffffffffffffffffff166009600060018461245491906131bd565b815260200190815260200160002060060160009054906101000a900473ffffffffffffffffffffffffffffffffffffffff1673ffffffffffffffffffffffffffffffffffffffff16145b156126c35760006001826124b291906131bd565b905060006009600083815260200190815260200160002090508060405180610120016040529081600082015481526020016001820160009054906101000a900473ffffffffffffffffffffffffffffffffffffffff1673ffffffffffffffffffffffffffffffffffffffff1673ffffffffffffffffffffffffffffffffffffffff168152602001600282015481526020016003820160009054906101000a900473ffffffffffffffffffffffffffffffffffffffff1673ffffffffffffffffffffffffffffffffffffffff1673ffffffffffffffffffffffffffffffffffffffff1681526020016004820160009054906101000a900473ffffffffffffffffffffffffffffffffffffffff1673ffffffffffffffffffffffffffffffffffffffff1673ffffffffffffffffffffffffffffffffffffffff168152602001600582015481526020016006820160009054906101000a900473ffffffffffffffffffffffffffffffffffffffff1673ffffffffffffffffffffffffffffffffffffffff1673ffffffffffffffffffffffffffffffffffffffff168152602001600782015481526020016008820160009054906101000a900460ff16600381111561267d5761267c612e1c565b5b600381111561268f5761268e612e1c565b5b815250508486815181106126a6576126a5613213565b5b60200260200101819052506001856126be91906131bd565b945050505b80806126ce90613242565b9150506123ad565b508094505050505090565b60606003808111156126f6576126f5612e1c565b5b82600381111561270957612708612e1c565b5b10612749576040517f08c379a0000000000000000000000000000000000000000000000000000000008152600401612740906139de565b60405180910390fd5b60006127556001612a99565b90506000612798600b600086600381111561277357612772612e1c565b5b600381111561278557612784612e1c565b5b8152602001908152602001600020612a99565b90506000808267ffffffffffffffff8111156127b7576127b661315f565b5b6040519080825280602002602001820160405280156127f057816020015b6127dd612cb6565b8152602001906001900390816127d55790505b50905060005b84811015612a8c5786600381111561281157612810612e1c565b5b6009600060018461282291906131bd565b815260200190815260200160002060080160009054906101000a900460ff16600381111561285357612852612e1c565b5b1415612a7957600060018261286891906131bd565b905060006009600083815260200190815260200160002090508060405180610120016040529081600082015481526020016001820160009054906101000a900473ffffffffffffffffffffffffffffffffffffffff1673ffffffffffffffffffffffffffffffffffffffff1673ffffffffffffffffffffffffffffffffffffffff168152602001600282015481526020016003820160009054906101000a900473ffffffffffffffffffffffffffffffffffffffff1673ffffffffffffffffffffffffffffffffffffffff1673ffffffffffffffffffffffffffffffffffffffff1681526020016004820160009054906101000a900473ffffffffffffffffffffffffffffffffffffffff1673ffffffffffffffffffffffffffffffffffffffff1673ffffffffffffffffffffffffffffffffffffffff168152602001600582015481526020016006820160009054906101000a900473ffffffffffffffffffffffffffffffffffffffff1673ffffffffffffffffffffffffffffffffffffffff1673ffffffffffffffffffffffffffffffffffffffff168152602001600782015481526020016008820160009054906101000a900460ff166003811115612a3357612a32612e1c565b5b6003811115612a4557612a44612e1c565b5b81525050848681518110612a5c57612a5b613213565b5b6020026020010181905250600185612a7491906131bd565b945050505b8080612a8490613242565b9150506127f6565b5080945050505050919050565b600081600001549050919050565b6001816000016000828254019250508190555050565b60008160000154905060008111612b09576040517f08c379a0000000000000000000000000000000000000000000000000000000008152600401612b0090613a4a565b60405180910390fd5b6001810382600001819055505050565b60096000838152602001908152602001600020600201546009600084815260200190815260200160002060010160009054906101000a900473ffffffffffffffffffffffffffffffffffffffff1673ffffffffffffffffffffffffffffffffffffffff16837fcd6c4845a74606c5598b0f34c664ab8719e044b9b0b4984499589465989a1d8c6009600087815260200190815260200160002060030160009054906101000a900473ffffffffffffffffffffffffffffffffffffffff166009600088815260200190815260200160002060040160009054906101000a900473ffffffffffffffffffffffffffffffffffffffff166009600089815260200190815260200160002060050154600960008a815260200190815260200160002060060160009054906101000a900473ffffffffffffffffffffffffffffffffffffffff16600960008b815260200190815260200160002060070154600960008c815260200190815260200160002060080160009054906101000a900460ff168a604051612caa9796959493929190613ac1565b60405180910390a45050565b60405180610120016040528060008152602001600073ffffffffffffffffffffffffffffffffffffffff16815260200160008152602001600073ffffffffffffffffffffffffffffffffffffffff168152602001600073ffffffffffffffffffffffffffffffffffffffff16815260200160008152602001600073ffffffffffffffffffffffffffffffffffffffff1681526020016000815260200160006003811115612d6657612d65612e1c565b5b81525090565b6000819050919050565b612d7f81612d6c565b82525050565b6000602082019050612d9a6000830184612d76565b92915050565b600081519050919050565b600082825260208201905092915050565b6000819050602082019050919050565b612dd581612d6c565b82525050565b600073ffffffffffffffffffffffffffffffffffffffff82169050919050565b6000612e0682612ddb565b9050919050565b612e1681612dfb565b82525050565b7f4e487b7100000000000000000000000000000000000000000000000000000000600052602160045260246000fd5b60048110612e5c57612e5b612e1c565b5b50565b6000819050612e6d82612e4b565b919050565b6000612e7d82612e5f565b9050919050565b612e8d81612e72565b82525050565b61012082016000820151612eaa6000850182612dcc565b506020820151612ebd6020850182612e0d565b506040820151612ed06040850182612dcc565b506060820151612ee36060850182612e0d565b506080820151612ef66080850182612e0d565b5060a0820151612f0960a0850182612dcc565b5060c0820151612f1c60c0850182612e0d565b5060e0820151612f2f60e0850182612dcc565b50610100820151612f44610100850182612e84565b50505050565b6000612f568383612e93565b6101208301905092915050565b6000602082019050919050565b6000612f7b82612da0565b612f858185612dab565b9350612f9083612dbc565b8060005b83811015612fc1578151612fa88882612f4a565b9750612fb383612f63565b925050600181019050612f94565b5085935050505092915050565b60006020820190508181036000830152612fe88184612f70565b905092915050565b600080fd5b612ffe81612dfb565b811461300957600080fd5b50565b60008135905061301b81612ff5565b92915050565b61302a81612d6c565b811461303557600080fd5b50565b60008135905061304781613021565b92915050565b60008060006060848603121561306657613065612ff0565b5b60006130748682870161300c565b935050602061308586828701613038565b92505060406130968682870161300c565b9150509250925092565b6000602082840312156130b6576130b5612ff0565b5b60006130c484828501613038565b91505092915050565b600080604083850312156130e4576130e3612ff0565b5b60006130f285828601613038565b925050602061310385828601613038565b9150509250929050565b6004811061311a57600080fd5b50565b60008135905061312c8161310d565b92915050565b60006020828403121561314857613147612ff0565b5b60006131568482850161311d565b91505092915050565b7f4e487b7100000000000000000000000000000000000000000000000000000000600052604160045260246000fd5b7f4e487b7100000000000000000000000000000000000000000000000000000000600052601160045260246000fd5b60006131c882612d6c565b91506131d383612d6c565b9250827fffffffffffffffffffffffffffffffffffffffffffffffffffffffffffffffff038211156132085761320761318e565b5b828201905092915050565b7f4e487b7100000000000000000000000000000000000000000000000000000000600052603260045260246000fd5b600061324d82612d6c565b91507fffffffffffffffffffffffffffffffffffffffffffffffffffffffffffffffff8214156132805761327f61318e565b5b600182019050919050565b600082825260208201905092915050565b7f5265656e7472616e637947756172643a207265656e7472616e742063616c6c00600082015250565b60006132d2601f8361328b565b91506132dd8261329c565b602082019050919050565b60006020820190508181036000830152613301816132c5565b9050919050565b60008151905061331781612ff5565b92915050565b60006020828403121561333357613332612ff0565b5b600061334184828501613308565b91505092915050565b60008151905061335981613021565b92915050565b60006020828403121561337557613374612ff0565b5b60006133838482850161334a565b91505092915050565b7f737461747573206973206e6f742077697468647261776e000000000000000000600082015250565b60006133c260178361328b565b91506133cd8261338c565b602082019050919050565b600060208201905081810360008301526133f1816133b5565b9050919050565b61340181612dfb565b82525050565b600060608201905061341c60008301866133f8565b61342960208301856133f8565b6134366040830184612d76565b949350505050565b7f4974656d206e6f74206c6973746564206f7220616c726561647920706169642e60008201527f2e2e000000000000000000000000000000000000000000000000000000000000602082015250565b600061349a60228361328b565b91506134a58261343e565b604082019050919050565b600060208201905081810360008301526134c98161348d565b9050919050565b60008115159050919050565b6134e5816134d0565b81146134f057600080fd5b50565b600081519050613502816134dc565b92915050565b60006020828403121561351e5761351d612ff0565b5b600061352c848285016134f3565b91505092915050565b7f4f6e6c79206f776e6572206f6620616e206974656d2063616e206c697374206960008201527f742e2e2e00000000000000000000000000000000000000000000000000000000602082015250565b600061359160248361328b565b915061359c82613535565b604082019050919050565b600060208201905081810360008301526135c081613584565b9050919050565b7f4974656d20616c7265616479206c6973746564206f7220706169642e2e2e0000600082015250565b60006135fd601e8361328b565b9150613608826135c7565b602082019050919050565b6000602082019050818103600083015261362c816135f0565b9050919050565b7f4f6e6c7920756e6c6973746564206974656d732063616e20626520776974686460008201527f7261776e2e2e2e00000000000000000000000000000000000000000000000000602082015250565b600061368f60278361328b565b915061369a82613633565b604082019050919050565b600060208201905081810360008301526136be81613682565b9050919050565b7f4f6e6c79206974656d206f776e65722063616e2077697468647261772069742e60008201527f2e2e000000000000000000000000000000000000000000000000000000000000602082015250565b600061372160228361328b565b915061372c826136c5565b604082019050919050565b6000602082019050818103600083015261375081613714565b9050919050565b7f4f6e6c79206974656d206f776e65722063616e20756e6c69737420746865206960008201527f74656d2e2e2e0000000000000000000000000000000000000000000000000000602082015250565b60006137b360268361328b565b91506137be82613757565b604082019050919050565b600060208201905081810360008301526137e2816137a6565b9050919050565b7f4f6e6c792062757965722063616e20636f6e6669726d2074686520726563657060008201527f74696f6e206f6620616e206974656d2e2e2e0000000000000000000000000000602082015250565b600061384560328361328b565b9150613850826137e9565b604082019050919050565b6000602082019050818103600083015261387481613838565b9050919050565b600061388682612d6c565b915061389183612d6c565b9250817fffffffffffffffffffffffffffffffffffffffffffffffffffffffffffffffff04831182151516156138ca576138c961318e565b5b828202905092915050565b7f4e487b7100000000000000000000000000000000000000000000000000000000600052601260045260246000fd5b600061390f82612d6c565b915061391a83612d6c565b92508261392a576139296138d5565b5b828204905092915050565b600061394082612d6c565b915061394b83612d6c565b92508282101561395e5761395d61318e565b5b828203905092915050565b600060408201905061397e60008301856133f8565b61398b6020830184612d76565b9392505050565b7f696e76616c696420737461747573207265717565737400000000000000000000600082015250565b60006139c860168361328b565b91506139d382613992565b602082019050919050565b600060208201905081810360008301526139f7816139bb565b9050919050565b7f436f756e7465723a2064656372656d656e74206f766572666c6f770000000000600082015250565b6000613a34601b8361328b565b9150613a3f826139fe565b602082019050919050565b60006020820190508181036000830152613a6381613a27565b9050919050565b613a7381612e72565b82525050565b60068110613a8a57613a89612e1c565b5b50565b6000819050613a9b82613a79565b919050565b6000613aab82613a8d565b9050919050565b613abb81613aa0565b82525050565b600060e082019050613ad6600083018a6133f8565b613ae360208301896133f8565b613af06040830188612d76565b613afd60608301876133f8565b613b0a6080830186612d76565b613b1760a0830185613a6a565b613b2460c0830184613ab2565b9897505050505050505056fea2646970667358221220af43a1940f1a2115be58f5e8d3d8904488184e0d247b43aacaa1f7090bca28bf64736f6c63430008090033",
  "linkReferences": {},
  "deployedLinkReferences": {}
}