{
  "_format": "hh-sol-artifact-1",
  "contractName": "ONLimitedNFT",
  "sourceName": "contracts/ONLimitedNFT.sol",
  "abi": [
    {
      "inputs": [
        {
          "internalType": "address",
          "name": "marketplaceAddress",
          "type": "address"
        }
      ],
      "stateMutability": "nonpayable",
      "type": "constructor"
    },
    {
      "anonymous": false,
      "inputs": [
        {
          "indexed": true,
          "internalType": "address",
          "name": "owner",
          "type": "address"
        },
        {
          "indexed": true,
          "internalType": "address",
          "name": "approved",
          "type": "address"
        },
        {
          "indexed": true,
          "internalType": "uint256",
          "name": "tokenId",
          "type": "uint256"
        }
      ],
      "name": "Approval",
      "type": "event"
    },
    {
      "anonymous": false,
      "inputs": [
        {
          "indexed": true,
          "internalType": "address",
          "name": "owner",
          "type": "address"
        },
        {
          "indexed": true,
          "internalType": "address",
          "name": "operator",
          "type": "address"
        },
        {
          "indexed": false,
          "internalType": "bool",
          "name": "approved",
          "type": "bool"
        }
      ],
      "name": "ApprovalForAll",
      "type": "event"
    },
    {
      "anonymous": false,
      "inputs": [
        {
          "indexed": true,
          "internalType": "bytes32",
          "name": "role",
          "type": "bytes32"
        },
        {
          "indexed": true,
          "internalType": "bytes32",
          "name": "previousAdminRole",
          "type": "bytes32"
        },
        {
          "indexed": true,
          "internalType": "bytes32",
          "name": "newAdminRole",
          "type": "bytes32"
        }
      ],
      "name": "RoleAdminChanged",
      "type": "event"
    },
    {
      "anonymous": false,
      "inputs": [
        {
          "indexed": true,
          "internalType": "bytes32",
          "name": "role",
          "type": "bytes32"
        },
        {
          "indexed": true,
          "internalType": "address",
          "name": "account",
          "type": "address"
        },
        {
          "indexed": true,
          "internalType": "address",
          "name": "sender",
          "type": "address"
        }
      ],
      "name": "RoleGranted",
      "type": "event"
    },
    {
      "anonymous": false,
      "inputs": [
        {
          "indexed": true,
          "internalType": "bytes32",
          "name": "role",
          "type": "bytes32"
        },
        {
          "indexed": true,
          "internalType": "address",
          "name": "account",
          "type": "address"
        },
        {
          "indexed": true,
          "internalType": "address",
          "name": "sender",
          "type": "address"
        }
      ],
      "name": "RoleRevoked",
      "type": "event"
    },
    {
      "anonymous": false,
      "inputs": [
        {
          "indexed": true,
          "internalType": "address",
          "name": "from",
          "type": "address"
        },
        {
          "indexed": true,
          "internalType": "address",
          "name": "to",
          "type": "address"
        },
        {
          "indexed": true,
          "internalType": "uint256",
          "name": "tokenId",
          "type": "uint256"
        }
      ],
      "name": "Transfer",
      "type": "event"
    },
    {
      "inputs": [],
      "name": "DEFAULT_ADMIN_ROLE",
      "outputs": [
        {
          "internalType": "bytes32",
          "name": "",
          "type": "bytes32"
        }
      ],
      "stateMutability": "view",
      "type": "function"
    },
    {
      "inputs": [],
      "name": "MINTER_ROLE",
      "outputs": [
        {
          "internalType": "bytes32",
          "name": "",
          "type": "bytes32"
        }
      ],
      "stateMutability": "view",
      "type": "function"
    },
    {
      "inputs": [
        {
          "internalType": "address",
          "name": "minterAddress",
          "type": "address"
        },
        {
          "internalType": "string",
          "name": "minterName",
          "type": "string"
        }
      ],
      "name": "addMinter",
      "outputs": [],
      "stateMutability": "nonpayable",
      "type": "function"
    },
    {
      "inputs": [
        {
          "internalType": "address",
          "name": "to",
          "type": "address"
        },
        {
          "internalType": "uint256",
          "name": "tokenId",
          "type": "uint256"
        }
      ],
      "name": "approve",
      "outputs": [],
      "stateMutability": "nonpayable",
      "type": "function"
    },
    {
      "inputs": [
        {
          "internalType": "address",
          "name": "owner",
          "type": "address"
        }
      ],
      "name": "balanceOf",
      "outputs": [
        {
          "internalType": "uint256",
          "name": "",
          "type": "uint256"
        }
      ],
      "stateMutability": "view",
      "type": "function"
    },
    {
      "inputs": [
        {
          "internalType": "string",
          "name": "tokenURI",
          "type": "string"
        },
        {
          "internalType": "address",
          "name": "owner",
          "type": "address"
        },
        {
          "internalType": "uint256",
          "name": "newTokenPercentageRoyalty",
          "type": "uint256"
        }
      ],
      "name": "createToken",
      "outputs": [
        {
          "internalType": "uint256",
          "name": "",
          "type": "uint256"
        }
      ],
      "stateMutability": "nonpayable",
      "type": "function"
    },
    {
      "inputs": [
        {
          "internalType": "uint256",
          "name": "tokenId",
          "type": "uint256"
        }
      ],
      "name": "getApproved",
      "outputs": [
        {
          "internalType": "address",
          "name": "",
          "type": "address"
        }
      ],
      "stateMutability": "view",
      "type": "function"
    },
    {
      "inputs": [
        {
          "internalType": "address",
          "name": "minterAddress",
          "type": "address"
        }
      ],
      "name": "getMinterName",
      "outputs": [
        {
          "internalType": "string",
          "name": "",
          "type": "string"
        }
      ],
      "stateMutability": "view",
      "type": "function"
    },
    {
      "inputs": [
        {
          "internalType": "bytes32",
          "name": "role",
          "type": "bytes32"
        }
      ],
      "name": "getRoleAdmin",
      "outputs": [
        {
          "internalType": "bytes32",
          "name": "",
          "type": "bytes32"
        }
      ],
      "stateMutability": "view",
      "type": "function"
    },
    {
      "inputs": [
        {
          "internalType": "bytes32",
          "name": "role",
          "type": "bytes32"
        },
        {
          "internalType": "address",
          "name": "account",
          "type": "address"
        }
      ],
      "name": "grantRole",
      "outputs": [],
      "stateMutability": "nonpayable",
      "type": "function"
    },
    {
      "inputs": [
        {
          "internalType": "bytes32",
          "name": "role",
          "type": "bytes32"
        },
        {
          "internalType": "address",
          "name": "account",
          "type": "address"
        }
      ],
      "name": "hasRole",
      "outputs": [
        {
          "internalType": "bool",
          "name": "",
          "type": "bool"
        }
      ],
      "stateMutability": "view",
      "type": "function"
    },
    {
      "inputs": [
        {
          "internalType": "address",
          "name": "owner",
          "type": "address"
        },
        {
          "internalType": "address",
          "name": "operator",
          "type": "address"
        }
      ],
      "name": "isApprovedForAll",
      "outputs": [
        {
          "internalType": "bool",
          "name": "",
          "type": "bool"
        }
      ],
      "stateMutability": "view",
      "type": "function"
    },
    {
      "inputs": [],
      "name": "name",
      "outputs": [
        {
          "internalType": "string",
          "name": "",
          "type": "string"
        }
      ],
      "stateMutability": "view",
      "type": "function"
    },
    {
      "inputs": [
        {
          "internalType": "uint256",
          "name": "tokenId",
          "type": "uint256"
        }
      ],
      "name": "ownerOf",
      "outputs": [
        {
          "internalType": "address",
          "name": "",
          "type": "address"
        }
      ],
      "stateMutability": "view",
      "type": "function"
    },
    {
      "inputs": [
        {
          "internalType": "bytes32",
          "name": "role",
          "type": "bytes32"
        },
        {
          "internalType": "address",
          "name": "account",
          "type": "address"
        }
      ],
      "name": "renounceRole",
      "outputs": [],
      "stateMutability": "nonpayable",
      "type": "function"
    },
    {
      "inputs": [
        {
          "internalType": "bytes32",
          "name": "role",
          "type": "bytes32"
        },
        {
          "internalType": "address",
          "name": "account",
          "type": "address"
        }
      ],
      "name": "revokeRole",
      "outputs": [],
      "stateMutability": "nonpayable",
      "type": "function"
    },
    {
      "inputs": [
        {
          "internalType": "address",
          "name": "from",
          "type": "address"
        },
        {
          "internalType": "address",
          "name": "to",
          "type": "address"
        },
        {
          "internalType": "uint256",
          "name": "tokenId",
          "type": "uint256"
        }
      ],
      "name": "safeTransferFrom",
      "outputs": [],
      "stateMutability": "nonpayable",
      "type": "function"
    },
    {
      "inputs": [
        {
          "internalType": "address",
          "name": "from",
          "type": "address"
        },
        {
          "internalType": "address",
          "name": "to",
          "type": "address"
        },
        {
          "internalType": "uint256",
          "name": "tokenId",
          "type": "uint256"
        },
        {
          "internalType": "bytes",
          "name": "_data",
          "type": "bytes"
        }
      ],
      "name": "safeTransferFrom",
      "outputs": [],
      "stateMutability": "nonpayable",
      "type": "function"
    },
    {
      "inputs": [
        {
          "internalType": "address",
          "name": "operator",
          "type": "address"
        },
        {
          "internalType": "bool",
          "name": "approved",
          "type": "bool"
        }
      ],
      "name": "setApprovalForAll",
      "outputs": [],
      "stateMutability": "nonpayable",
      "type": "function"
    },
    {
      "inputs": [
        {
          "internalType": "bytes4",
          "name": "interfaceId",
          "type": "bytes4"
        }
      ],
      "name": "supportsInterface",
      "outputs": [
        {
          "internalType": "bool",
          "name": "",
          "type": "bool"
        }
      ],
      "stateMutability": "view",
      "type": "function"
    },
    {
      "inputs": [],
      "name": "symbol",
      "outputs": [
        {
          "internalType": "string",
          "name": "",
          "type": "string"
        }
      ],
      "stateMutability": "view",
      "type": "function"
    },
    {
      "inputs": [
        {
          "internalType": "uint256",
          "name": "tokenId",
          "type": "uint256"
        }
      ],
      "name": "tokenMinterAddress",
      "outputs": [
        {
          "internalType": "address",
          "name": "",
          "type": "address"
        }
      ],
      "stateMutability": "view",
      "type": "function"
    },
    {
      "inputs": [
        {
          "internalType": "uint256",
          "name": "tokenId",
          "type": "uint256"
        }
      ],
      "name": "tokenPercentageRoyalty",
      "outputs": [
        {
          "internalType": "uint256",
          "name": "",
          "type": "uint256"
        }
      ],
      "stateMutability": "view",
      "type": "function"
    },
    {
      "inputs": [
        {
          "internalType": "uint256",
          "name": "tokenId",
          "type": "uint256"
        }
      ],
      "name": "tokenURI",
      "outputs": [
        {
          "internalType": "string",
          "name": "",
          "type": "string"
        }
      ],
      "stateMutability": "view",
      "type": "function"
    },
    {
      "inputs": [
        {
          "internalType": "address",
          "name": "from",
          "type": "address"
        },
        {
          "internalType": "address",
          "name": "to",
          "type": "address"
        },
        {
          "internalType": "uint256",
          "name": "tokenId",
          "type": "uint256"
        }
      ],
      "name": "transferFrom",
      "outputs": [],
      "stateMutability": "nonpayable",
      "type": "function"
    }
  ],
  "bytecode": "0x60806040523480156200001157600080fd5b506040516200451b3803806200451b83398181016040528101906200003791906200043c565b6040518060400160405280600e81526020017f4f4e4c696d69746564204e4654730000000000000000000000000000000000008152506040518060400160405280600681526020017f4e464c4d544400000000000000000000000000000000000000000000000000008152508160009080519060200190620000bb92919062000322565b508060019080519060200190620000d492919062000322565b50505080600c60006101000a81548173ffffffffffffffffffffffffffffffffffffffff021916908373ffffffffffffffffffffffffffffffffffffffff16021790555033600d60006101000a81548173ffffffffffffffffffffffffffffffffffffffff021916908373ffffffffffffffffffffffffffffffffffffffff1602179055506200016e6000801b33620001a760201b60201c565b620001a07f9f2df0fed2c77648de5860a4cc508cd0818c85b8b8a1ab4ceeef8d981c8956a633620001a760201b60201c565b50620004d3565b620001b98282620001bd60201b60201c565b5050565b620001cf8282620002af60201b60201c565b620002ab5760016007600084815260200190815260200160002060000160008373ffffffffffffffffffffffffffffffffffffffff1673ffffffffffffffffffffffffffffffffffffffff16815260200190815260200160002060006101000a81548160ff021916908315150217905550620002506200031a60201b60201c565b73ffffffffffffffffffffffffffffffffffffffff168173ffffffffffffffffffffffffffffffffffffffff16837f2f8788117e7eff1d82e926ec794901d17c78024a50270940304540a733656f0d60405160405180910390a45b5050565b60006007600084815260200190815260200160002060000160008373ffffffffffffffffffffffffffffffffffffffff1673ffffffffffffffffffffffffffffffffffffffff16815260200190815260200160002060009054906101000a900460ff16905092915050565b600033905090565b82805462000330906200049d565b90600052602060002090601f016020900481019282620003545760008555620003a0565b82601f106200036f57805160ff1916838001178555620003a0565b82800160010185558215620003a0579182015b828111156200039f57825182559160200191906001019062000382565b5b509050620003af9190620003b3565b5090565b5b80821115620003ce576000816000905550600101620003b4565b5090565b600080fd5b600073ffffffffffffffffffffffffffffffffffffffff82169050919050565b60006200040482620003d7565b9050919050565b6200041681620003f7565b81146200042257600080fd5b50565b60008151905062000436816200040b565b92915050565b600060208284031215620004555762000454620003d2565b5b6000620004658482850162000425565b91505092915050565b7f4e487b7100000000000000000000000000000000000000000000000000000000600052602260045260246000fd5b60006002820490506001821680620004b657607f821691505b60208210811415620004cd57620004cc6200046e565b5b50919050565b61403880620004e36000396000f3fe608060405234801561001057600080fd5b50600436106101735760003560e01c80636352211e116100de578063a22cb46511610097578063c87b56dd11610071578063c87b56dd14610492578063d5391393146104c2578063d547741f146104e0578063e985e9c5146104fc57610173565b8063a22cb4651461042a578063b88d4fde14610446578063c6dd4d541461046257610173565b80636352211e1461032e57806370a082311461035e57806373b4df051461038e57806391d14854146103be57806395d89b41146103ee578063a217fddf1461040c57610173565b806323b872dd1161013057806323b872dd14610272578063248a9ca31461028e5780632f2ff15d146102be57806336568abe146102da578063424f3c8e146102f657806342842e0e1461031257610173565b806301ffc9a71461017857806306fdde03146101a8578063081812fc146101c6578063095ea7b3146101f65780631684193e14610212578063183101d314610242575b600080fd5b610192600480360381019061018d91906126c4565b61052c565b60405161019f919061270c565b60405180910390f35b6101b061060e565b6040516101bd91906127c0565b60405180910390f35b6101e060048036038101906101db9190612818565b6106a0565b6040516101ed9190612886565b60405180910390f35b610210600480360381019061020b91906128cd565b610725565b005b61022c60048036038101906102279190612818565b61083d565b6040516102399190612886565b60405180910390f35b61025c6004803603810190610257919061290d565b6108c2565b60405161026991906127c0565b60405180910390f35b61028c6004803603810190610287919061293a565b610993565b005b6102a860048036038101906102a391906129c3565b6109f3565b6040516102b591906129ff565b60405180910390f35b6102d860048036038101906102d39190612a1a565b610a13565b005b6102f460048036038101906102ef9190612a1a565b610a3c565b005b610310600480360381019061030b9190612b8f565b610abf565b005b61032c6004803603810190610327919061293a565b610b8d565b005b61034860048036038101906103439190612818565b610bad565b6040516103559190612886565b60405180910390f35b6103786004803603810190610373919061290d565b610c5f565b6040516103859190612bfa565b60405180910390f35b6103a860048036038101906103a39190612c15565b610d17565b6040516103b59190612bfa565b60405180910390f35b6103d860048036038101906103d39190612a1a565b610dcd565b6040516103e5919061270c565b60405180910390f35b6103f6610e38565b60405161040391906127c0565b60405180910390f35b610414610eca565b60405161042191906129ff565b60405180910390f35b610444600480360381019061043f9190612cb0565b610ed1565b005b610460600480360381019061045b9190612d91565b611052565b005b61047c60048036038101906104779190612818565b6110b4565b6040516104899190612bfa565b60405180910390f35b6104ac60048036038101906104a79190612818565b611119565b6040516104b991906127c0565b60405180910390f35b6104ca61126b565b6040516104d791906129ff565b60405180910390f35b6104fa60048036038101906104f59190612a1a565b61128f565b005b61051660048036038101906105119190612e14565b6112b8565b604051610523919061270c565b60405180910390f35b60007fda8def73000000000000000000000000000000000000000000000000000000007bffffffffffffffffffffffffffffffffffffffffffffffffffffffff1916827bffffffffffffffffffffffffffffffffffffffffffffffffffffffff191614806105f757507f80ac58cd000000000000000000000000000000000000000000000000000000007bffffffffffffffffffffffffffffffffffffffffffffffffffffffff1916827bffffffffffffffffffffffffffffffffffffffffffffffffffffffff1916145b8061060757506106068261134c565b5b9050919050565b60606000805461061d90612e83565b80601f016020809104026020016040519081016040528092919081815260200182805461064990612e83565b80156106965780601f1061066b57610100808354040283529160200191610696565b820191906000526020600020905b81548152906001019060200180831161067957829003601f168201915b5050505050905090565b60006106ab826113c6565b6106ea576040517f08c379a00000000000000000000000000000000000000000000000000000000081526004016106e190612f27565b60405180910390fd5b6004600083815260200190815260200160002060009054906101000a900473ffffffffffffffffffffffffffffffffffffffff169050919050565b600061073082610bad565b90508073ffffffffffffffffffffffffffffffffffffffff168373ffffffffffffffffffffffffffffffffffffffff1614156107a1576040517f08c379a000000000000000000000000000000000000000000000000000000000815260040161079890612fb9565b60405180910390fd5b8073ffffffffffffffffffffffffffffffffffffffff166107c0611432565b73ffffffffffffffffffffffffffffffffffffffff1614806107ef57506107ee816107e9611432565b6112b8565b5b61082e576040517f08c379a00000000000000000000000000000000000000000000000000000000081526004016108259061304b565b60405180910390fd5b610838838361143a565b505050565b6000610848826113c6565b610887576040517f08c379a000000000000000000000000000000000000000000000000000000000815260040161087e906130dd565b60405180910390fd5b6008600083815260200190815260200160002060009054906101000a900473ffffffffffffffffffffffffffffffffffffffff169050919050565b6060600a60008373ffffffffffffffffffffffffffffffffffffffff1673ffffffffffffffffffffffffffffffffffffffff168152602001908152602001600020805461090e90612e83565b80601f016020809104026020016040519081016040528092919081815260200182805461093a90612e83565b80156109875780601f1061095c57610100808354040283529160200191610987565b820191906000526020600020905b81548152906001019060200180831161096a57829003601f168201915b50505050509050919050565b6109a461099e611432565b826114f3565b6109e3576040517f08c379a00000000000000000000000000000000000000000000000000000000081526004016109da9061316f565b60405180910390fd5b6109ee8383836115d1565b505050565b600060076000838152602001908152602001600020600101549050919050565b610a1c826109f3565b610a2d81610a28611432565b61182d565b610a3783836118ca565b505050565b610a44611432565b73ffffffffffffffffffffffffffffffffffffffff168173ffffffffffffffffffffffffffffffffffffffff1614610ab1576040517f08c379a0000000000000000000000000000000000000000000000000000000008152600401610aa890613201565b60405180910390fd5b610abb82826119ab565b5050565b610acc6000801b33610dcd565b610b0b576040517f08c379a0000000000000000000000000000000000000000000000000000000008152600401610b029061326d565b60405180910390fd5b80600a60008473ffffffffffffffffffffffffffffffffffffffff1673ffffffffffffffffffffffffffffffffffffffff1681526020019081526020016000209080519060200190610b5e9291906125b5565b50610b897f9f2df0fed2c77648de5860a4cc508cd0818c85b8b8a1ab4ceeef8d981c8956a683611a8d565b5050565b610ba883838360405180602001604052806000815250611052565b505050565b6000806002600084815260200190815260200160002060009054906101000a900473ffffffffffffffffffffffffffffffffffffffff169050600073ffffffffffffffffffffffffffffffffffffffff168173ffffffffffffffffffffffffffffffffffffffff161415610c56576040517f08c379a0000000000000000000000000000000000000000000000000000000008152600401610c4d906132ff565b60405180910390fd5b80915050919050565b60008073ffffffffffffffffffffffffffffffffffffffff168273ffffffffffffffffffffffffffffffffffffffff161415610cd0576040517f08c379a0000000000000000000000000000000000000000000000000000000008152600401610cc790613391565b60405180910390fd5b600360008373ffffffffffffffffffffffffffffffffffffffff1673ffffffffffffffffffffffffffffffffffffffff168152602001908152602001600020549050919050565b6000610d437f9f2df0fed2c77648de5860a4cc508cd0818c85b8b8a1ab4ceeef8d981c8956a633610dcd565b610d82576040517f08c379a0000000000000000000000000000000000000000000000000000000008152600401610d79906133fd565b60405180910390fd5b610d8c600b611a9b565b6000610d98600b611ab1565b9050610da48482611abf565b610dae8186611c8d565b610db88133611d01565b610dc28184611d9f565b809150509392505050565b60006007600084815260200190815260200160002060000160008373ffffffffffffffffffffffffffffffffffffffff1673ffffffffffffffffffffffffffffffffffffffff16815260200190815260200160002060009054906101000a900460ff16905092915050565b606060018054610e4790612e83565b80601f0160208091040260200160405190810160405280929190818152602001828054610e7390612e83565b8015610ec05780601f10610e9557610100808354040283529160200191610ec0565b820191906000526020600020905b815481529060010190602001808311610ea357829003601f168201915b5050505050905090565b6000801b81565b610ed9611432565b73ffffffffffffffffffffffffffffffffffffffff168273ffffffffffffffffffffffffffffffffffffffff161415610f47576040517f08c379a0000000000000000000000000000000000000000000000000000000008152600401610f3e90613469565b60405180910390fd5b8060056000610f54611432565b73ffffffffffffffffffffffffffffffffffffffff1673ffffffffffffffffffffffffffffffffffffffff16815260200190815260200160002060008473ffffffffffffffffffffffffffffffffffffffff1673ffffffffffffffffffffffffffffffffffffffff16815260200190815260200160002060006101000a81548160ff0219169083151502179055508173ffffffffffffffffffffffffffffffffffffffff16611001611432565b73ffffffffffffffffffffffffffffffffffffffff167f17307eab39ab6107e8899845ad3d59bd9653f200f220920489ca2b5937696c3183604051611046919061270c565b60405180910390a35050565b61106361105d611432565b836114f3565b6110a2576040517f08c379a00000000000000000000000000000000000000000000000000000000081526004016110999061316f565b60405180910390fd5b6110ae84848484611e03565b50505050565b60006110bf826113c6565b6110fe576040517f08c379a00000000000000000000000000000000000000000000000000000000081526004016110f590613521565b60405180910390fd5b60096000838152602001908152602001600020549050919050565b6060611124826113c6565b611163576040517f08c379a000000000000000000000000000000000000000000000000000000000815260040161115a906135b3565b60405180910390fd5b600060066000848152602001908152602001600020805461118390612e83565b80601f01602080910402602001604051908101604052809291908181526020018280546111af90612e83565b80156111fc5780601f106111d1576101008083540402835291602001916111fc565b820191906000526020600020905b8154815290600101906020018083116111df57829003601f168201915b50505050509050600061120d611e5f565b9050600081511415611223578192505050611266565b60008251111561125857808260405160200161124092919061360f565b60405160208183030381529060405292505050611266565b61126184611e76565b925050505b919050565b7f9f2df0fed2c77648de5860a4cc508cd0818c85b8b8a1ab4ceeef8d981c8956a681565b611298826109f3565b6112a9816112a4611432565b61182d565b6112b383836119ab565b505050565b6000600560008473ffffffffffffffffffffffffffffffffffffffff1673ffffffffffffffffffffffffffffffffffffffff16815260200190815260200160002060008373ffffffffffffffffffffffffffffffffffffffff1673ffffffffffffffffffffffffffffffffffffffff16815260200190815260200160002060009054906101000a900460ff16905092915050565b60007f7965db0b000000000000000000000000000000000000000000000000000000007bffffffffffffffffffffffffffffffffffffffffffffffffffffffff1916827bffffffffffffffffffffffffffffffffffffffffffffffffffffffff191614806113bf57506113be82611f1d565b5b9050919050565b60008073ffffffffffffffffffffffffffffffffffffffff166002600084815260200190815260200160002060009054906101000a900473ffffffffffffffffffffffffffffffffffffffff1673ffffffffffffffffffffffffffffffffffffffff1614159050919050565b600033905090565b816004600083815260200190815260200160002060006101000a81548173ffffffffffffffffffffffffffffffffffffffff021916908373ffffffffffffffffffffffffffffffffffffffff160217905550808273ffffffffffffffffffffffffffffffffffffffff166114ad83610bad565b73ffffffffffffffffffffffffffffffffffffffff167f8c5be1e5ebec7d5bd14f71427d1e84f3dd0314c0f7b2291e5b200ac8c7c3b92560405160405180910390a45050565b60006114fe826113c6565b61153d576040517f08c379a0000000000000000000000000000000000000000000000000000000008152600401611534906136a5565b60405180910390fd5b600061154883610bad565b90508073ffffffffffffffffffffffffffffffffffffffff168473ffffffffffffffffffffffffffffffffffffffff1614806115b757508373ffffffffffffffffffffffffffffffffffffffff1661159f846106a0565b73ffffffffffffffffffffffffffffffffffffffff16145b806115c857506115c781856112b8565b5b91505092915050565b8273ffffffffffffffffffffffffffffffffffffffff166115f182610bad565b73ffffffffffffffffffffffffffffffffffffffff1614611647576040517f08c379a000000000000000000000000000000000000000000000000000000000815260040161163e90613737565b60405180910390fd5b600073ffffffffffffffffffffffffffffffffffffffff168273ffffffffffffffffffffffffffffffffffffffff1614156116b7576040517f08c379a00000000000000000000000000000000000000000000000000000000081526004016116ae906137c9565b60405180910390fd5b6116c2838383611fff565b6116cd60008261143a565b6001600360008573ffffffffffffffffffffffffffffffffffffffff1673ffffffffffffffffffffffffffffffffffffffff168152602001908152602001600020600082825461171d9190613818565b925050819055506001600360008473ffffffffffffffffffffffffffffffffffffffff1673ffffffffffffffffffffffffffffffffffffffff1681526020019081526020016000206000828254611774919061384c565b92505081905550816002600083815260200190815260200160002060006101000a81548173ffffffffffffffffffffffffffffffffffffffff021916908373ffffffffffffffffffffffffffffffffffffffff160217905550808273ffffffffffffffffffffffffffffffffffffffff168473ffffffffffffffffffffffffffffffffffffffff167fddf252ad1be2c89b69c2b068fc378daa952ba7f163c4a11628f55a4df523b3ef60405160405180910390a4505050565b6118378282610dcd565b6118c65761185c8173ffffffffffffffffffffffffffffffffffffffff166014612004565b61186a8360001c6020612004565b60405160200161187b92919061393a565b6040516020818303038152906040526040517f08c379a00000000000000000000000000000000000000000000000000000000081526004016118bd91906127c0565b60405180910390fd5b5050565b6118d48282610dcd565b6119a75760016007600084815260200190815260200160002060000160008373ffffffffffffffffffffffffffffffffffffffff1673ffffffffffffffffffffffffffffffffffffffff16815260200190815260200160002060006101000a81548160ff02191690831515021790555061194c611432565b73ffffffffffffffffffffffffffffffffffffffff168173ffffffffffffffffffffffffffffffffffffffff16837f2f8788117e7eff1d82e926ec794901d17c78024a50270940304540a733656f0d60405160405180910390a45b5050565b6119b58282610dcd565b15611a895760006007600084815260200190815260200160002060000160008373ffffffffffffffffffffffffffffffffffffffff1673ffffffffffffffffffffffffffffffffffffffff16815260200190815260200160002060006101000a81548160ff021916908315150217905550611a2e611432565b73ffffffffffffffffffffffffffffffffffffffff168173ffffffffffffffffffffffffffffffffffffffff16837ff6391f5c32d9c69d2a47ea670b442974b53935d1edc7fd64eb21e047a839171b60405160405180910390a45b5050565b611a9782826118ca565b5050565b6001816000016000828254019250508190555050565b600081600001549050919050565b600073ffffffffffffffffffffffffffffffffffffffff168273ffffffffffffffffffffffffffffffffffffffff161415611b2f576040517f08c379a0000000000000000000000000000000000000000000000000000000008152600401611b26906139c0565b60405180910390fd5b611b38816113c6565b15611b78576040517f08c379a0000000000000000000000000000000000000000000000000000000008152600401611b6f90613a2c565b60405180910390fd5b611b8460008383611fff565b6001600360008473ffffffffffffffffffffffffffffffffffffffff1673ffffffffffffffffffffffffffffffffffffffff1681526020019081526020016000206000828254611bd4919061384c565b92505081905550816002600083815260200190815260200160002060006101000a81548173ffffffffffffffffffffffffffffffffffffffff021916908373ffffffffffffffffffffffffffffffffffffffff160217905550808273ffffffffffffffffffffffffffffffffffffffff16600073ffffffffffffffffffffffffffffffffffffffff167fddf252ad1be2c89b69c2b068fc378daa952ba7f163c4a11628f55a4df523b3ef60405160405180910390a45050565b611c96826113c6565b611cd5576040517f08c379a0000000000000000000000000000000000000000000000000000000008152600401611ccc90613abe565b60405180910390fd5b80600660008481526020019081526020016000209080519060200190611cfc9291906125b5565b505050565b611d0a826113c6565b611d49576040517f08c379a0000000000000000000000000000000000000000000000000000000008152600401611d4090613b50565b60405180910390fd5b806008600084815260200190815260200160002060006101000a81548173ffffffffffffffffffffffffffffffffffffffff021916908373ffffffffffffffffffffffffffffffffffffffff1602179055505050565b611da8826113c6565b611de7576040517f08c379a0000000000000000000000000000000000000000000000000000000008152600401611dde90613be2565b60405180910390fd5b8060096000848152602001908152602001600020819055505050565b611e0e8484846115d1565b611e1a84848484612240565b611e59576040517f08c379a0000000000000000000000000000000000000000000000000000000008152600401611e5090613c74565b60405180910390fd5b50505050565b606060405180602001604052806000815250905090565b6060611e81826113c6565b611ec0576040517f08c379a0000000000000000000000000000000000000000000000000000000008152600401611eb790613d06565b60405180910390fd5b6000611eca611e5f565b90506000815111611eea5760405180602001604052806000815250611f15565b80611ef4846123d7565b604051602001611f0592919061360f565b6040516020818303038152906040525b915050919050565b60007f80ac58cd000000000000000000000000000000000000000000000000000000007bffffffffffffffffffffffffffffffffffffffffffffffffffffffff1916827bffffffffffffffffffffffffffffffffffffffffffffffffffffffff19161480611fe857507f5b5e139f000000000000000000000000000000000000000000000000000000007bffffffffffffffffffffffffffffffffffffffffffffffffffffffff1916827bffffffffffffffffffffffffffffffffffffffffffffffffffffffff1916145b80611ff85750611ff782612538565b5b9050919050565b505050565b6060600060028360026120179190613d26565b612021919061384c565b67ffffffffffffffff81111561203a57612039612a64565b5b6040519080825280601f01601f19166020018201604052801561206c5781602001600182028036833780820191505090505b5090507f3000000000000000000000000000000000000000000000000000000000000000816000815181106120a4576120a3613d80565b5b60200101907effffffffffffffffffffffffffffffffffffffffffffffffffffffffffffff1916908160001a9053507f78000000000000000000000000000000000000000000000000000000000000008160018151811061210857612107613d80565b5b60200101907effffffffffffffffffffffffffffffffffffffffffffffffffffffffffffff1916908160001a905350600060018460026121489190613d26565b612152919061384c565b90505b60018111156121f2577f3031323334353637383961626364656600000000000000000000000000000000600f86166010811061219457612193613d80565b5b1a60f81b8282815181106121ab576121aa613d80565b5b60200101907effffffffffffffffffffffffffffffffffffffffffffffffffffffffffffff1916908160001a905350600485901c9450806121eb90613daf565b9050612155565b5060008414612236576040517f08c379a000000000000000000000000000000000000000000000000000000000815260040161222d90613e25565b60405180910390fd5b8091505092915050565b60006122618473ffffffffffffffffffffffffffffffffffffffff166125a2565b156123ca578373ffffffffffffffffffffffffffffffffffffffff1663150b7a0261228a611432565b8786866040518563ffffffff1660e01b81526004016122ac9493929190613e9a565b602060405180830381600087803b1580156122c657600080fd5b505af19250505080156122f757506040513d601f19601f820116820180604052508101906122f49190613efb565b60015b61237a573d8060008114612327576040519150601f19603f3d011682016040523d82523d6000602084013e61232c565b606091505b50600081511415612372576040517f08c379a000000000000000000000000000000000000000000000000000000000815260040161236990613c74565b60405180910390fd5b805181602001fd5b63150b7a0260e01b7bffffffffffffffffffffffffffffffffffffffffffffffffffffffff1916817bffffffffffffffffffffffffffffffffffffffffffffffffffffffff1916149150506123cf565b600190505b949350505050565b6060600082141561241f576040518060400160405280600181526020017f30000000000000000000000000000000000000000000000000000000000000008152509050612533565b600082905060005b6000821461245157808061243a90613f28565b915050600a8261244a9190613fa0565b9150612427565b60008167ffffffffffffffff81111561246d5761246c612a64565b5b6040519080825280601f01601f19166020018201604052801561249f5781602001600182028036833780820191505090505b5090505b6000851461252c576001826124b89190613818565b9150600a856124c79190613fd1565b60306124d3919061384c565b60f81b8183815181106124e9576124e8613d80565b5b60200101907effffffffffffffffffffffffffffffffffffffffffffffffffffffffffffff1916908160001a905350600a856125259190613fa0565b94506124a3565b8093505050505b919050565b60007f01ffc9a7000000000000000000000000000000000000000000000000000000007bffffffffffffffffffffffffffffffffffffffffffffffffffffffff1916827bffffffffffffffffffffffffffffffffffffffffffffffffffffffff1916149050919050565b600080823b905060008111915050919050565b8280546125c190612e83565b90600052602060002090601f0160209004810192826125e3576000855561262a565b82601f106125fc57805160ff191683800117855561262a565b8280016001018555821561262a579182015b8281111561262957825182559160200191906001019061260e565b5b509050612637919061263b565b5090565b5b8082111561265457600081600090555060010161263c565b5090565b6000604051905090565b600080fd5b600080fd5b60007fffffffff0000000000000000000000000000000000000000000000000000000082169050919050565b6126a18161266c565b81146126ac57600080fd5b50565b6000813590506126be81612698565b92915050565b6000602082840312156126da576126d9612662565b5b60006126e8848285016126af565b91505092915050565b60008115159050919050565b612706816126f1565b82525050565b600060208201905061272160008301846126fd565b92915050565b600081519050919050565b600082825260208201905092915050565b60005b83811015612761578082015181840152602081019050612746565b83811115612770576000848401525b50505050565b6000601f19601f8301169050919050565b600061279282612727565b61279c8185612732565b93506127ac818560208601612743565b6127b581612776565b840191505092915050565b600060208201905081810360008301526127da8184612787565b905092915050565b6000819050919050565b6127f5816127e2565b811461280057600080fd5b50565b600081359050612812816127ec565b92915050565b60006020828403121561282e5761282d612662565b5b600061283c84828501612803565b91505092915050565b600073ffffffffffffffffffffffffffffffffffffffff82169050919050565b600061287082612845565b9050919050565b61288081612865565b82525050565b600060208201905061289b6000830184612877565b92915050565b6128aa81612865565b81146128b557600080fd5b50565b6000813590506128c7816128a1565b92915050565b600080604083850312156128e4576128e3612662565b5b60006128f2858286016128b8565b925050602061290385828601612803565b9150509250929050565b60006020828403121561292357612922612662565b5b6000612931848285016128b8565b91505092915050565b60008060006060848603121561295357612952612662565b5b6000612961868287016128b8565b9350506020612972868287016128b8565b925050604061298386828701612803565b9150509250925092565b6000819050919050565b6129a08161298d565b81146129ab57600080fd5b50565b6000813590506129bd81612997565b92915050565b6000602082840312156129d9576129d8612662565b5b60006129e7848285016129ae565b91505092915050565b6129f98161298d565b82525050565b6000602082019050612a1460008301846129f0565b92915050565b60008060408385031215612a3157612a30612662565b5b6000612a3f858286016129ae565b9250506020612a50858286016128b8565b9150509250929050565b600080fd5b600080fd5b7f4e487b7100000000000000000000000000000000000000000000000000000000600052604160045260246000fd5b612a9c82612776565b810181811067ffffffffffffffff82111715612abb57612aba612a64565b5b80604052505050565b6000612ace612658565b9050612ada8282612a93565b919050565b600067ffffffffffffffff821115612afa57612af9612a64565b5b612b0382612776565b9050602081019050919050565b82818337600083830152505050565b6000612b32612b2d84612adf565b612ac4565b905082815260208101848484011115612b4e57612b4d612a5f565b5b612b59848285612b10565b509392505050565b600082601f830112612b7657612b75612a5a565b5b8135612b86848260208601612b1f565b91505092915050565b60008060408385031215612ba657612ba5612662565b5b6000612bb4858286016128b8565b925050602083013567ffffffffffffffff811115612bd557612bd4612667565b5b612be185828601612b61565b9150509250929050565b612bf4816127e2565b82525050565b6000602082019050612c0f6000830184612beb565b92915050565b600080600060608486031215612c2e57612c2d612662565b5b600084013567ffffffffffffffff811115612c4c57612c4b612667565b5b612c5886828701612b61565b9350506020612c69868287016128b8565b9250506040612c7a86828701612803565b9150509250925092565b612c8d816126f1565b8114612c9857600080fd5b50565b600081359050612caa81612c84565b92915050565b60008060408385031215612cc757612cc6612662565b5b6000612cd5858286016128b8565b9250506020612ce685828601612c9b565b9150509250929050565b600067ffffffffffffffff821115612d0b57612d0a612a64565b5b612d1482612776565b9050602081019050919050565b6000612d34612d2f84612cf0565b612ac4565b905082815260208101848484011115612d5057612d4f612a5f565b5b612d5b848285612b10565b509392505050565b600082601f830112612d7857612d77612a5a565b5b8135612d88848260208601612d21565b91505092915050565b60008060008060808587031215612dab57612daa612662565b5b6000612db9878288016128b8565b9450506020612dca878288016128b8565b9350506040612ddb87828801612803565b925050606085013567ffffffffffffffff811115612dfc57612dfb612667565b5b612e0887828801612d63565b91505092959194509250565b60008060408385031215612e2b57612e2a612662565b5b6000612e39858286016128b8565b9250506020612e4a858286016128b8565b9150509250929050565b7f4e487b7100000000000000000000000000000000000000000000000000000000600052602260045260246000fd5b60006002820490506001821680612e9b57607f821691505b60208210811415612eaf57612eae612e54565b5b50919050565b7f4552433732313a20617070726f76656420717565727920666f72206e6f6e657860008201527f697374656e7420746f6b656e0000000000000000000000000000000000000000602082015250565b6000612f11602c83612732565b9150612f1c82612eb5565b604082019050919050565b60006020820190508181036000830152612f4081612f04565b9050919050565b7f4552433732313a20617070726f76616c20746f2063757272656e74206f776e6560008201527f7200000000000000000000000000000000000000000000000000000000000000602082015250565b6000612fa3602183612732565b9150612fae82612f47565b604082019050919050565b60006020820190508181036000830152612fd281612f96565b9050919050565b7f4552433732313a20617070726f76652063616c6c6572206973206e6f74206f7760008201527f6e6572206e6f7220617070726f76656420666f7220616c6c0000000000000000602082015250565b6000613035603883612732565b915061304082612fd9565b604082019050919050565b6000602082019050818103600083015261306481613028565b9050919050565b7f4f4e4c696d697465644e46543a204d696e74657220416464726573732071756560008201527f727920666f72206e6f6e6578697374656e7420746f6b656e0000000000000000602082015250565b60006130c7603883612732565b91506130d28261306b565b604082019050919050565b600060208201905081810360008301526130f6816130ba565b9050919050565b7f4552433732313a207472616e736665722063616c6c6572206973206e6f74206f60008201527f776e6572206e6f7220617070726f766564000000000000000000000000000000602082015250565b6000613159603183612732565b9150613164826130fd565b604082019050919050565b600060208201905081810360008301526131888161314c565b9050919050565b7f416363657373436f6e74726f6c3a2063616e206f6e6c792072656e6f756e636560008201527f20726f6c657320666f722073656c660000000000000000000000000000000000602082015250565b60006131eb602f83612732565b91506131f68261318f565b604082019050919050565b6000602082019050818103600083015261321a816131de565b9050919050565b7f43616c6c6572206973206e6f7420612041646d696e0000000000000000000000600082015250565b6000613257601583612732565b915061326282613221565b602082019050919050565b600060208201905081810360008301526132868161324a565b9050919050565b7f4552433732313a206f776e657220717565727920666f72206e6f6e657869737460008201527f656e7420746f6b656e0000000000000000000000000000000000000000000000602082015250565b60006132e9602983612732565b91506132f48261328d565b604082019050919050565b60006020820190508181036000830152613318816132dc565b9050919050565b7f4552433732313a2062616c616e636520717565727920666f7220746865207a6560008201527f726f206164647265737300000000000000000000000000000000000000000000602082015250565b600061337b602a83612732565b91506133868261331f565b604082019050919050565b600060208201905081810360008301526133aa8161336e565b9050919050565b7f43616c6c6572206973206e6f742061206d696e74657200000000000000000000600082015250565b60006133e7601683612732565b91506133f2826133b1565b602082019050919050565b60006020820190508181036000830152613416816133da565b9050919050565b7f4552433732313a20617070726f766520746f2063616c6c657200000000000000600082015250565b6000613453601983612732565b915061345e8261341d565b602082019050919050565b6000602082019050818103600083015261348281613446565b9050919050565b7f4f4e4c696d697465644e46543a20546f6b656e2050657263656e74616765205260008201527f6f79616c747920717565727920666f72206e6f6e6578697374656e7420746f6b60208201527f656e000000000000000000000000000000000000000000000000000000000000604082015250565b600061350b604283612732565b915061351682613489565b606082019050919050565b6000602082019050818103600083015261353a816134fe565b9050919050565b7f45524337323155524953746f726167653a2055524920717565727920666f722060008201527f6e6f6e6578697374656e7420746f6b656e000000000000000000000000000000602082015250565b600061359d603183612732565b91506135a882613541565b604082019050919050565b600060208201905081810360008301526135cc81613590565b9050919050565b600081905092915050565b60006135e982612727565b6135f381856135d3565b9350613603818560208601612743565b80840191505092915050565b600061361b82856135de565b915061362782846135de565b91508190509392505050565b7f4552433732313a206f70657261746f7220717565727920666f72206e6f6e657860008201527f697374656e7420746f6b656e0000000000000000000000000000000000000000602082015250565b600061368f602c83612732565b915061369a82613633565b604082019050919050565b600060208201905081810360008301526136be81613682565b9050919050565b7f4552433732313a207472616e73666572206f6620746f6b656e2074686174206960008201527f73206e6f74206f776e0000000000000000000000000000000000000000000000602082015250565b6000613721602983612732565b915061372c826136c5565b604082019050919050565b6000602082019050818103600083015261375081613714565b9050919050565b7f4552433732313a207472616e7366657220746f20746865207a65726f2061646460008201527f7265737300000000000000000000000000000000000000000000000000000000602082015250565b60006137b3602483612732565b91506137be82613757565b604082019050919050565b600060208201905081810360008301526137e2816137a6565b9050919050565b7f4e487b7100000000000000000000000000000000000000000000000000000000600052601160045260246000fd5b6000613823826127e2565b915061382e836127e2565b925082821015613841576138406137e9565b5b828203905092915050565b6000613857826127e2565b9150613862836127e2565b9250827fffffffffffffffffffffffffffffffffffffffffffffffffffffffffffffffff03821115613897576138966137e9565b5b828201905092915050565b7f416363657373436f6e74726f6c3a206163636f756e7420000000000000000000600082015250565b60006138d86017836135d3565b91506138e3826138a2565b601782019050919050565b7f206973206d697373696e6720726f6c6520000000000000000000000000000000600082015250565b60006139246011836135d3565b915061392f826138ee565b601182019050919050565b6000613945826138cb565b915061395182856135de565b915061395c82613917565b915061396882846135de565b91508190509392505050565b7f4552433732313a206d696e7420746f20746865207a65726f2061646472657373600082015250565b60006139aa602083612732565b91506139b582613974565b602082019050919050565b600060208201905081810360008301526139d98161399d565b9050919050565b7f4552433732313a20746f6b656e20616c7265616479206d696e74656400000000600082015250565b6000613a16601c83612732565b9150613a21826139e0565b602082019050919050565b60006020820190508181036000830152613a4581613a09565b9050919050565b7f45524337323155524953746f726167653a2055524920736574206f66206e6f6e60008201527f6578697374656e7420746f6b656e000000000000000000000000000000000000602082015250565b6000613aa8602e83612732565b9150613ab382613a4c565b604082019050919050565b60006020820190508181036000830152613ad781613a9b565b9050919050565b7f4f4e4c696d697465644e46543a204d696e74657220416464726573732073657460008201527f206f66206e6f6e6578697374656e7420746f6b656e0000000000000000000000602082015250565b6000613b3a603583612732565b9150613b4582613ade565b604082019050919050565b60006020820190508181036000830152613b6981613b2d565b9050919050565b7f4f4e4c696d697465644e46543a20546f6b656e2050657263656e74616765205260008201527f6f79616c747920736574206f66206e6f6e6578697374656e7420746f6b656e00602082015250565b6000613bcc603f83612732565b9150613bd782613b70565b604082019050919050565b60006020820190508181036000830152613bfb81613bbf565b9050919050565b7f4552433732313a207472616e7366657220746f206e6f6e20455243373231526560008201527f63656976657220696d706c656d656e7465720000000000000000000000000000602082015250565b6000613c5e603283612732565b9150613c6982613c02565b604082019050919050565b60006020820190508181036000830152613c8d81613c51565b9050919050565b7f4552433732314d657461646174613a2055524920717565727920666f72206e6f60008201527f6e6578697374656e7420746f6b656e0000000000000000000000000000000000602082015250565b6000613cf0602f83612732565b9150613cfb82613c94565b604082019050919050565b60006020820190508181036000830152613d1f81613ce3565b9050919050565b6000613d31826127e2565b9150613d3c836127e2565b9250817fffffffffffffffffffffffffffffffffffffffffffffffffffffffffffffffff0483118215151615613d7557613d746137e9565b5b828202905092915050565b7f4e487b7100000000000000000000000000000000000000000000000000000000600052603260045260246000fd5b6000613dba826127e2565b91506000821415613dce57613dcd6137e9565b5b600182039050919050565b7f537472696e67733a20686578206c656e67746820696e73756666696369656e74600082015250565b6000613e0f602083612732565b9150613e1a82613dd9565b602082019050919050565b60006020820190508181036000830152613e3e81613e02565b9050919050565b600081519050919050565b600082825260208201905092915050565b6000613e6c82613e45565b613e768185613e50565b9350613e86818560208601612743565b613e8f81612776565b840191505092915050565b6000608082019050613eaf6000830187612877565b613ebc6020830186612877565b613ec96040830185612beb565b8181036060830152613edb8184613e61565b905095945050505050565b600081519050613ef581612698565b92915050565b600060208284031215613f1157613f10612662565b5b6000613f1f84828501613ee6565b91505092915050565b6000613f33826127e2565b91507fffffffffffffffffffffffffffffffffffffffffffffffffffffffffffffffff821415613f6657613f656137e9565b5b600182019050919050565b7f4e487b7100000000000000000000000000000000000000000000000000000000600052601260045260246000fd5b6000613fab826127e2565b9150613fb6836127e2565b925082613fc657613fc5613f71565b5b828204905092915050565b6000613fdc826127e2565b9150613fe7836127e2565b925082613ff757613ff6613f71565b5b82820690509291505056fea26469706673582212202f29b2e40f3c67232866597ed502fdef1754c8b3b24484d7538ecf81684f59fc64736f6c63430008090033",
  "linkReferences": {},
  "deployedLinkReferences": {}
}